{
  "contractName": "FlightContract",
  "abi": [
    {
      "inputs": [
        {
          "internalType": "address",
          "name": "_link",
          "type": "address"
        },
        {
          "internalType": "uint256",
          "name": "_price",
          "type": "uint256"
        },
        {
          "internalType": "uint256",
          "name": "_flightId",
          "type": "uint256"
        },
        {
          "internalType": "uint256",
          "name": "_condition",
          "type": "uint256"
        }
      ],
      "stateMutability": "nonpayable",
      "type": "constructor"
    },
    {
      "anonymous": false,
      "inputs": [
        {
          "indexed": true,
          "internalType": "bytes32",
          "name": "id",
          "type": "bytes32"
        }
      ],
      "name": "ChainlinkCancelled",
      "type": "event"
    },
    {
      "anonymous": false,
      "inputs": [
        {
          "indexed": true,
          "internalType": "bytes32",
          "name": "id",
          "type": "bytes32"
        }
      ],
      "name": "ChainlinkFulfilled",
      "type": "event"
    },
    {
      "anonymous": false,
      "inputs": [
        {
          "indexed": true,
          "internalType": "bytes32",
          "name": "id",
          "type": "bytes32"
        }
      ],
      "name": "ChainlinkRequested",
      "type": "event"
    },
    {
      "anonymous": false,
      "inputs": [
        {
          "indexed": true,
          "internalType": "bytes32",
          "name": "requestId",
          "type": "bytes32"
        },
        {
          "indexed": true,
          "internalType": "bool",
          "name": "refund",
          "type": "bool"
        }
      ],
      "name": "FlightContractRefunded",
      "type": "event"
    },
    {
      "inputs": [
        {
          "internalType": "address",
          "name": "_oracle",
          "type": "address"
        },
        {
          "internalType": "string",
          "name": "_jobId",
          "type": "string"
        }
      ],
      "name": "createCheckFlightConditionRequest",
      "outputs": [
        {
          "internalType": "bytes32",
          "name": "requestId",
          "type": "bytes32"
        }
      ],
      "stateMutability": "nonpayable",
      "type": "function"
    },
    {
      "inputs": [
        {
          "internalType": "bytes32",
          "name": "_requestId",
          "type": "bytes32"
        },
        {
          "internalType": "uint256",
          "name": "positiveCases",
          "type": "uint256"
        }
      ],
      "name": "fulfill",
      "outputs": [],
      "stateMutability": "nonpayable",
      "type": "function"
    }
  ],
  "bytecode": "0x6080604052600160045534801561001557600080fd5b506040516110803803806110808339818101604052608081101561003857600080fd5b8101908080519060200190929190805190602001909291908051906020019092919080519060200190929190505050600073ffffffffffffffffffffffffffffffffffffffff168473ffffffffffffffffffffffffffffffffffffffff1614156100af576100aa6100dd60201b60201c565b6100bf565b6100be8461018260201b60201c565b5b826006819055508160078190555080600881905550505050506101c6565b61018073c89bd4e1632d3a43cb03aaad5262cbe4038bc57173ffffffffffffffffffffffffffffffffffffffff166338cc48316040518163ffffffff1660e01b815260040160206040518083038186803b15801561013a57600080fd5b505afa15801561014e573d6000803e3d6000fd5b505050506040513d602081101561016457600080fd5b810190808051906020019092919050505061018260201b60201c565b565b80600260006101000a81548173ffffffffffffffffffffffffffffffffffffffff021916908373ffffffffffffffffffffffffffffffffffffffff16021790555050565b610eab806101d56000396000f3fe608060405234801561001057600080fd5b50600436106100365760003560e01c80634357855e1461003b5780637e922fc514610073575b600080fd5b6100716004803603604081101561005157600080fd5b810190808035906020019092919080359060200190929190505050610162565b005b61014c6004803603604081101561008957600080fd5b81019080803573ffffffffffffffffffffffffffffffffffffffff169060200190929190803590602001906401000000008111156100c657600080fd5b8201836020820111156100d857600080fd5b803590602001918460018302840111640100000000831117156100fa57600080fd5b91908080601f016020809104026020016040519081016040528093929190818152602001838380828437600081840152601f19601f8201169050808301925050505050505091929192905050506102bc565b6040518082815260200191505060405180910390f35b816005600082815260200190815260200160002060009054906101000a900473ffffffffffffffffffffffffffffffffffffffff1673ffffffffffffffffffffffffffffffffffffffff163373ffffffffffffffffffffffffffffffffffffffff161461021a576040517f08c379a0000000000000000000000000000000000000000000000000000000008152600401808060200182810382526028815260200180610e176028913960400191505060405180910390fd5b6005600082815260200190815260200160002060006101000a81549073ffffffffffffffffffffffffffffffffffffffff0219169055807f7cc135e0cebb02c3480ae5d74d377283180a2601f8f644edf7987b009316c63a60405160405180910390a2600060085483119050801515847feb34bb5a5ae0d288a950f451de1948cd58aa3b97cc85f49d982fa2fd6baca25060405160405180910390a350505050565b60006102c6610d6c565b6102e06102d2846103df565b30634357855e60e01b61040a565b90506103446040518060400160405280600381526020017f75726c0000000000000000000000000000000000000000000000000000000000815250604051806060016040528060378152602001610e3f603791398361043b9092919063ffffffff16565b6103c36040518060400160405280600481526020017f70617468000000000000000000000000000000000000000000000000000000008152506040518060400160405280600881526020017f706f7369746976650000000000000000000000000000000000000000000000008152508361043b9092919063ffffffff16565b6103d68482670de0b6b3a764000061046e565b91505092915050565b600060608290506000815114156103fc576000801b915050610405565b60208301519150505b919050565b610412610d6c565b61041a610d6c565b61043185858584610726909392919063ffffffff16565b9150509392505050565b6104528284608001516107d690919063ffffffff16565b6104698184608001516107d690919063ffffffff16565b505050565b600030600454604051602001808373ffffffffffffffffffffffffffffffffffffffff1673ffffffffffffffffffffffffffffffffffffffff1660601b815260140182815260200192505050604051602081830303815290604052805190602001209050600454836060018181525050836005600083815260200190815260200160002060006101000a81548173ffffffffffffffffffffffffffffffffffffffff021916908373ffffffffffffffffffffffffffffffffffffffff160217905550807fb5e6e01e79f91267dc17b4e6314d5d4d03593d2ceee0fbb452b750bd70ea5af960405160405180910390a2600260009054906101000a900473ffffffffffffffffffffffffffffffffffffffff1673ffffffffffffffffffffffffffffffffffffffff16634000aea085846105a6876107fb565b6040518463ffffffff1660e01b8152600401808473ffffffffffffffffffffffffffffffffffffffff1673ffffffffffffffffffffffffffffffffffffffff16815260200183815260200180602001828103825283818151815260200191508051906020019080838360005b8381101561062d578082015181840152602081019050610612565b50505050905090810190601f16801561065a5780820380516001836020036101000a031916815260200191505b50945050505050602060405180830381600087803b15801561067b57600080fd5b505af115801561068f573d6000803e3d6000fd5b505050506040513d60208110156106a557600080fd5b810190808051906020019092919050505061070b576040517f08c379a0000000000000000000000000000000000000000000000000000000008152600401808060200182810382526023815260200180610df46023913960400191505060405180910390fd5b60016004600082825401925050819055508090509392505050565b61072e610d6c565b61073e85608001516101006109c7565b508385600001818152505082856020019073ffffffffffffffffffffffffffffffffffffffff16908173ffffffffffffffffffffffffffffffffffffffff16815250508185604001907bffffffffffffffffffffffffffffffffffffffffffffffffffffffff191690817bffffffffffffffffffffffffffffffffffffffffffffffffffffffff191681525050849050949350505050565b6107e38260038351610a1b565b6107f68183610b6090919063ffffffff16565b505050565b6060634042994660e01b60008084600001518560200151866040015187606001516001896080015160000151604051602401808973ffffffffffffffffffffffffffffffffffffffff1673ffffffffffffffffffffffffffffffffffffffff1681526020018881526020018781526020018673ffffffffffffffffffffffffffffffffffffffff1673ffffffffffffffffffffffffffffffffffffffff168152602001857bffffffffffffffffffffffffffffffffffffffffffffffffffffffff19167bffffffffffffffffffffffffffffffffffffffffffffffffffffffff1916815260200184815260200183815260200180602001828103825283818151815260200191508051906020019080838360005b8381101561092a57808201518184015260208101905061090f565b50505050905090810190601f1680156109575780820380516001836020036101000a031916815260200191505b509950505050505050505050604051602081830303815290604052907bffffffffffffffffffffffffffffffffffffffffffffffffffffffff19166020820180517bffffffffffffffffffffffffffffffffffffffffffffffffffffffff83818316178352505050509050919050565b6109cf610dd9565b6000602083816109db57fe5b06146109f457602082816109eb57fe5b06602003820191505b81836020018181525050604051808452600081528281016020016040525082905092915050565b60178111610a4857610a428160058460ff16901b60ff161784610b8290919063ffffffff16565b50610b5b565b60ff8111610a8a57610a6d601860058460ff16901b1784610b8290919063ffffffff16565b50610a8481600185610ba29092919063ffffffff16565b50610b5a565b61ffff8111610acd57610ab0601960058460ff16901b1784610b8290919063ffffffff16565b50610ac781600285610ba29092919063ffffffff16565b50610b59565b63ffffffff8111610b1257610af5601a60058460ff16901b1784610b8290919063ffffffff16565b50610b0c81600485610ba29092919063ffffffff16565b50610b58565b67ffffffffffffffff8111610b5757610b3e601b60058460ff16901b1784610b8290919063ffffffff16565b50610b5581600885610ba29092919063ffffffff16565b505b5b5b5b5b505050565b610b68610dd9565b610b7a83846000015151848551610bc4565b905092915050565b610b8a610dd9565b610b9a8384600001515184610c7d565b905092915050565b610baa610dd9565b610bbb848560000151518585610ccb565b90509392505050565b610bcc610dd9565b8251821115610bda57600080fd5b84602001518285011115610c0557610c04856002610bfe8860200151888701610d2c565b02610d48565b5b600080865180518760208301019350808887011115610c245787860182525b60208701925050505b60208410610c505780518252602082019150602081019050602084039350610c2d565b60006001856020036101000a03905080198251168184511681811785525050879350505050949350505050565b610c85610dd9565b83602001518310610ca257610ca1846002866020015102610d48565b5b8351805160208583010184815381861415610cbe576001820183525b5050508390509392505050565b610cd3610dd9565b84602001518483011115610cf157610cf085600286850102610d48565b5b60006001836101000a0390508551838682010185831982511617815281518588011115610d1e5784870182525b505085915050949350505050565b600081831115610d3e57829050610d42565b8190505b92915050565b606082600001519050610d5b83836109c7565b50610d668382610b60565b50505050565b6040518060a0016040528060008019168152602001600073ffffffffffffffffffffffffffffffffffffffff16815260200160007bffffffffffffffffffffffffffffffffffffffffffffffffffffffff1916815260200160008152602001610dd3610dd9565b81525090565b60405180604001604052806060815260200160008152509056fe756e61626c6520746f207472616e73666572416e6443616c6c20746f206f7261636c65536f75726365206d75737420626520746865206f7261636c65206f6620746865207265717565737468747470733a2f2f6170692e636f766964747261636b696e672e636f6d2f76312f7374617465732f4e592f63757272656e742e6a736f6ea26469706673582212204a56277c59fb5c5dd6fe216bcfd147fba591f4eef782e4f23caaf70fce29219564736f6c63430006060033",
  "immutableReferences": {},
  "source": "pragma solidity >=0.5.0;\r\n\r\nimport \"@chainlink/contracts/src/v0.6/ChainlinkClient.sol\";\r\nimport \"@openzeppelin/contracts/access/Ownable.sol\";\r\n\r\ncontract FlightContractFactory is ChainlinkClient {\r\n  address[] public contracts;\r\n  uint contractId = 0;\r\n\r\n  constructor(address _link) public {\r\n    if (_link == address(0)) {\r\n      setPublicChainlinkToken();\r\n    } else {\r\n      setChainlinkToken(_link);\r\n    }\r\n  }\r\n\r\n  function getContractCount() \r\n    public \r\n    view \r\n    returns(uint contractCount) \r\n  {\r\n    return contracts.length;\r\n  }\r\n\r\n  function newFlightContract(\r\n    uint256 price,\r\n    uint256 flightId,\r\n    uint256 condition\r\n  )\r\n    public\r\n    returns(address newContract)\r\n  {\r\n    FlightContract f = new FlightContract(chainlinkTokenAddress(), price, flightId, condition);\r\n    address addr = address(f);\r\n    contracts.push(addr);\r\n    return addr;\r\n  }\r\n}\r\n\r\ncontract FlightContract is ChainlinkClient {\r\n  uint256 price;\r\n  uint256 flightId;\r\n  uint256 condition;\r\n  event FlightContractRefunded(\r\n    bytes32 indexed requestId,\r\n    bool indexed refund\r\n  );\r\n\r\n  constructor(address _link, uint256 _price, uint256 _flightId, uint256 _condition) public {\r\n    if (_link == address(0)) {\r\n      setPublicChainlinkToken();\r\n    } else {\r\n      setChainlinkToken(_link);\r\n    }\r\n\r\n    price = _price;\r\n    flightId = _flightId;\r\n    condition = _condition;\r\n  }\r\n\r\n  function createCheckFlightConditionRequest(address _oracle, string memory _jobId) public returns (bytes32 requestId)\r\n  {\r\n    Chainlink.Request memory req = buildChainlinkRequest(stringToBytes32(_jobId), address(this), this.fulfill.selector);\r\n    req.add(\"url\", 'https://api.covidtracking.com/v1/states/NY/current.json');\r\n    req.add(\"path\", \"positive\");\r\n    requestId = sendChainlinkRequestTo(_oracle, req, LINK);\r\n  }\r\n\r\n  function fulfill(bytes32 _requestId, uint256 positiveCases)\r\n    public\r\n    recordChainlinkFulfillment(_requestId)\r\n  {\r\n    bool refund = positiveCases > condition;\r\n    emit FlightContractRefunded(_requestId, refund);\r\n  }\r\n\r\n  // this was straight copy paste\r\n  function stringToBytes32(string memory source) private pure returns (bytes32 result) {\r\n    bytes memory tempEmptyStringTest = bytes(source);\r\n    if (tempEmptyStringTest.length == 0) {\r\n      return 0x0;\r\n    }\r\n\r\n    assembly { // solhint-disable-line no-inline-assembly\r\n      result := mload(add(source, 32))\r\n    }\r\n  }\r\n}\r\n",
  "sourcePath": "C:/Users/dvarg/Developer/dvargas92495/wings/contracts/FlightContractFactory.sol",
  "compiler": {
    "name": "solc",
    "version": "0.6.6+commit.6c089d02.Emscripten.clang"
  },
  "schemaVersion": "3.2.4",
  "updatedAt": "2020-09-18T21:49:47.264Z",
  "devdoc": {
    "methods": {}
  },
  "userdoc": {
    "methods": {}
  }
}