{
  "contractName": "FlightContract",
  "abi": [
    {
      "inputs": [
        {
          "internalType": "address",
          "name": "_link",
          "type": "address"
        },
        {
          "internalType": "uint256",
          "name": "_price",
          "type": "uint256"
        },
        {
          "internalType": "uint256",
          "name": "_flightId",
          "type": "uint256"
        },
        {
          "internalType": "uint256",
          "name": "_condition",
          "type": "uint256"
        }
      ],
      "stateMutability": "nonpayable",
      "type": "constructor"
    },
    {
      "anonymous": false,
      "inputs": [
        {
          "indexed": true,
          "internalType": "bytes32",
          "name": "id",
          "type": "bytes32"
        }
      ],
      "name": "ChainlinkCancelled",
      "type": "event"
    },
    {
      "anonymous": false,
      "inputs": [
        {
          "indexed": true,
          "internalType": "bytes32",
          "name": "id",
          "type": "bytes32"
        }
      ],
      "name": "ChainlinkFulfilled",
      "type": "event"
    },
    {
      "anonymous": false,
      "inputs": [
        {
          "indexed": true,
          "internalType": "bytes32",
          "name": "id",
          "type": "bytes32"
        }
      ],
      "name": "ChainlinkRequested",
      "type": "event"
    },
    {
      "anonymous": false,
      "inputs": [
        {
          "indexed": true,
          "internalType": "bytes32",
          "name": "requestId",
          "type": "bytes32"
        },
        {
          "indexed": true,
          "internalType": "bool",
          "name": "refund",
          "type": "bool"
        }
      ],
      "name": "FlightContractRefunded",
      "type": "event"
    },
    {
      "inputs": [],
      "name": "condition",
      "outputs": [
        {
          "internalType": "uint256",
          "name": "",
          "type": "uint256"
        }
      ],
      "stateMutability": "view",
      "type": "function"
    },
    {
      "inputs": [],
      "name": "flightId",
      "outputs": [
        {
          "internalType": "uint256",
          "name": "",
          "type": "uint256"
        }
      ],
      "stateMutability": "view",
      "type": "function"
    },
    {
      "inputs": [],
      "name": "price",
      "outputs": [
        {
          "internalType": "uint256",
          "name": "",
          "type": "uint256"
        }
      ],
      "stateMutability": "view",
      "type": "function"
    },
    {
      "inputs": [],
      "name": "refund",
      "outputs": [
        {
          "internalType": "bool",
          "name": "",
          "type": "bool"
        }
      ],
      "stateMutability": "view",
      "type": "function"
    },
    {
      "inputs": [
        {
          "internalType": "address",
          "name": "_oracle",
          "type": "address"
        },
        {
          "internalType": "string",
          "name": "_jobId",
          "type": "string"
        }
      ],
      "name": "createCheckFlightConditionRequest",
      "outputs": [
        {
          "internalType": "bytes32",
          "name": "requestId",
          "type": "bytes32"
        }
      ],
      "stateMutability": "nonpayable",
      "type": "function"
    },
    {
      "inputs": [
        {
          "internalType": "bytes32",
          "name": "_requestId",
          "type": "bytes32"
        },
        {
          "internalType": "uint256",
          "name": "positiveCases",
          "type": "uint256"
        }
      ],
      "name": "fulfill",
      "outputs": [],
      "stateMutability": "nonpayable",
      "type": "function"
    },
    {
      "inputs": [],
      "name": "getChainlinkToken",
      "outputs": [
        {
          "internalType": "address",
          "name": "",
          "type": "address"
        }
      ],
      "stateMutability": "view",
      "type": "function"
    }
  ],
  "bytecode": "0x6080604052600160045534801561001557600080fd5b5060405161120e38038061120e8339818101604052608081101561003857600080fd5b8101908080519060200190929190805190602001909291908051906020019092919080519060200190929190505050600073ffffffffffffffffffffffffffffffffffffffff168473ffffffffffffffffffffffffffffffffffffffff1614156100af576100aa6100dd60201b60201c565b6100bf565b6100be8461018260201b60201c565b5b826006819055508160078190555080600881905550505050506101c6565b61018073c89bd4e1632d3a43cb03aaad5262cbe4038bc57173ffffffffffffffffffffffffffffffffffffffff166338cc48316040518163ffffffff1660e01b815260040160206040518083038186803b15801561013a57600080fd5b505afa15801561014e573d6000803e3d6000fd5b505050506040513d602081101561016457600080fd5b810190808051906020019092919050505061018260201b60201c565b565b80600260006101000a81548173ffffffffffffffffffffffffffffffffffffffff021916908373ffffffffffffffffffffffffffffffffffffffff16021790555050565b611039806101d56000396000f3fe608060405234801561001057600080fd5b506004361061007d5760003560e01c80635daf3c061161005b5780635daf3c06146101265780637e922fc514610144578063a035b1fe14610233578063c5031331146102515761007d565b8063165d35e1146100825780634357855e146100cc578063590e1ae314610104575b600080fd5b61008a61026f565b604051808273ffffffffffffffffffffffffffffffffffffffff1673ffffffffffffffffffffffffffffffffffffffff16815260200191505060405180910390f35b610102600480360360408110156100e257600080fd5b81019080803590602001909291908035906020019092919050505061027e565b005b61010c6103fb565b604051808215151515815260200191505060405180910390f35b61012e61040e565b6040518082815260200191505060405180910390f35b61021d6004803603604081101561015a57600080fd5b81019080803573ffffffffffffffffffffffffffffffffffffffff1690602001909291908035906020019064010000000081111561019757600080fd5b8201836020820111156101a957600080fd5b803590602001918460018302840111640100000000831117156101cb57600080fd5b91908080601f016020809104026020016040519081016040528093929190818152602001838380828437600081840152601f19601f820116905080830192505050505050509192919290505050610414565b6040518082815260200191505060405180910390f35b61023b610537565b6040518082815260200191505060405180910390f35b61025961053d565b6040518082815260200191505060405180910390f35b6000610279610543565b905090565b816005600082815260200190815260200160002060009054906101000a900473ffffffffffffffffffffffffffffffffffffffff1673ffffffffffffffffffffffffffffffffffffffff163373ffffffffffffffffffffffffffffffffffffffff1614610336576040517f08c379a0000000000000000000000000000000000000000000000000000000008152600401808060200182810382526028815260200180610fa56028913960400191505060405180910390fd5b6005600082815260200190815260200160002060006101000a81549073ffffffffffffffffffffffffffffffffffffffff0219169055807f7cc135e0cebb02c3480ae5d74d377283180a2601f8f644edf7987b009316c63a60405160405180910390a26008548211600960006101000a81548160ff021916908315150217905550600960009054906101000a900460ff161515837feb34bb5a5ae0d288a950f451de1948cd58aa3b97cc85f49d982fa2fd6baca25060405160405180910390a3505050565b600960009054906101000a900460ff1681565b60075481565b600061041e610efa565b61043861042a8461056d565b30634357855e60e01b610598565b905061049c6040518060400160405280600381526020017f75726c0000000000000000000000000000000000000000000000000000000000815250604051806060016040528060378152602001610fcd60379139836105c99092919063ffffffff16565b61051b6040518060400160405280600481526020017f70617468000000000000000000000000000000000000000000000000000000008152506040518060400160405280600881526020017f706f736974697665000000000000000000000000000000000000000000000000815250836105c99092919063ffffffff16565b61052e8482670de0b6b3a76400006105fc565b91505092915050565b60065481565b60085481565b6000600260009054906101000a900473ffffffffffffffffffffffffffffffffffffffff16905090565b6000606082905060008151141561058a576000801b915050610593565b60208301519150505b919050565b6105a0610efa565b6105a8610efa565b6105bf858585846108b4909392919063ffffffff16565b9150509392505050565b6105e082846080015161096490919063ffffffff16565b6105f781846080015161096490919063ffffffff16565b505050565b600030600454604051602001808373ffffffffffffffffffffffffffffffffffffffff1673ffffffffffffffffffffffffffffffffffffffff1660601b815260140182815260200192505050604051602081830303815290604052805190602001209050600454836060018181525050836005600083815260200190815260200160002060006101000a81548173ffffffffffffffffffffffffffffffffffffffff021916908373ffffffffffffffffffffffffffffffffffffffff160217905550807fb5e6e01e79f91267dc17b4e6314d5d4d03593d2ceee0fbb452b750bd70ea5af960405160405180910390a2600260009054906101000a900473ffffffffffffffffffffffffffffffffffffffff1673ffffffffffffffffffffffffffffffffffffffff16634000aea0858461073487610989565b6040518463ffffffff1660e01b8152600401808473ffffffffffffffffffffffffffffffffffffffff1673ffffffffffffffffffffffffffffffffffffffff16815260200183815260200180602001828103825283818151815260200191508051906020019080838360005b838110156107bb5780820151818401526020810190506107a0565b50505050905090810190601f1680156107e85780820380516001836020036101000a031916815260200191505b50945050505050602060405180830381600087803b15801561080957600080fd5b505af115801561081d573d6000803e3d6000fd5b505050506040513d602081101561083357600080fd5b8101908080519060200190929190505050610899576040517f08c379a0000000000000000000000000000000000000000000000000000000008152600401808060200182810382526023815260200180610f826023913960400191505060405180910390fd5b60016004600082825401925050819055508090509392505050565b6108bc610efa565b6108cc8560800151610100610b55565b508385600001818152505082856020019073ffffffffffffffffffffffffffffffffffffffff16908173ffffffffffffffffffffffffffffffffffffffff16815250508185604001907bffffffffffffffffffffffffffffffffffffffffffffffffffffffff191690817bffffffffffffffffffffffffffffffffffffffffffffffffffffffff191681525050849050949350505050565b6109718260038351610ba9565b6109848183610cee90919063ffffffff16565b505050565b6060634042994660e01b60008084600001518560200151866040015187606001516001896080015160000151604051602401808973ffffffffffffffffffffffffffffffffffffffff1673ffffffffffffffffffffffffffffffffffffffff1681526020018881526020018781526020018673ffffffffffffffffffffffffffffffffffffffff1673ffffffffffffffffffffffffffffffffffffffff168152602001857bffffffffffffffffffffffffffffffffffffffffffffffffffffffff19167bffffffffffffffffffffffffffffffffffffffffffffffffffffffff1916815260200184815260200183815260200180602001828103825283818151815260200191508051906020019080838360005b83811015610ab8578082015181840152602081019050610a9d565b50505050905090810190601f168015610ae55780820380516001836020036101000a031916815260200191505b509950505050505050505050604051602081830303815290604052907bffffffffffffffffffffffffffffffffffffffffffffffffffffffff19166020820180517bffffffffffffffffffffffffffffffffffffffffffffffffffffffff83818316178352505050509050919050565b610b5d610f67565b600060208381610b6957fe5b0614610b825760208281610b7957fe5b06602003820191505b81836020018181525050604051808452600081528281016020016040525082905092915050565b60178111610bd657610bd08160058460ff16901b60ff161784610d1090919063ffffffff16565b50610ce9565b60ff8111610c1857610bfb601860058460ff16901b1784610d1090919063ffffffff16565b50610c1281600185610d309092919063ffffffff16565b50610ce8565b61ffff8111610c5b57610c3e601960058460ff16901b1784610d1090919063ffffffff16565b50610c5581600285610d309092919063ffffffff16565b50610ce7565b63ffffffff8111610ca057610c83601a60058460ff16901b1784610d1090919063ffffffff16565b50610c9a81600485610d309092919063ffffffff16565b50610ce6565b67ffffffffffffffff8111610ce557610ccc601b60058460ff16901b1784610d1090919063ffffffff16565b50610ce381600885610d309092919063ffffffff16565b505b5b5b5b5b505050565b610cf6610f67565b610d0883846000015151848551610d52565b905092915050565b610d18610f67565b610d288384600001515184610e0b565b905092915050565b610d38610f67565b610d49848560000151518585610e59565b90509392505050565b610d5a610f67565b8251821115610d6857600080fd5b84602001518285011115610d9357610d92856002610d8c8860200151888701610eba565b02610ed6565b5b600080865180518760208301019350808887011115610db25787860182525b60208701925050505b60208410610dde5780518252602082019150602081019050602084039350610dbb565b60006001856020036101000a03905080198251168184511681811785525050879350505050949350505050565b610e13610f67565b83602001518310610e3057610e2f846002866020015102610ed6565b5b8351805160208583010184815381861415610e4c576001820183525b5050508390509392505050565b610e61610f67565b84602001518483011115610e7f57610e7e85600286850102610ed6565b5b60006001836101000a0390508551838682010185831982511617815281518588011115610eac5784870182525b505085915050949350505050565b600081831115610ecc57829050610ed0565b8190505b92915050565b606082600001519050610ee98383610b55565b50610ef48382610cee565b50505050565b6040518060a0016040528060008019168152602001600073ffffffffffffffffffffffffffffffffffffffff16815260200160007bffffffffffffffffffffffffffffffffffffffffffffffffffffffff1916815260200160008152602001610f61610f67565b81525090565b60405180604001604052806060815260200160008152509056fe756e61626c6520746f207472616e73666572416e6443616c6c20746f206f7261636c65536f75726365206d75737420626520746865206f7261636c65206f6620746865207265717565737468747470733a2f2f6170692e636f766964747261636b696e672e636f6d2f76312f7374617465732f4e592f63757272656e742e6a736f6ea26469706673582212201cfe6f66310e49b9e6bd3364a4fa3b60678924c839f651e730e1e5920cc8cc4464736f6c63430006060033",
  "immutableReferences": {},
  "source": "pragma solidity >=0.5.0;\r\n\r\nimport \"@chainlink/contracts/src/v0.6/ChainlinkClient.sol\";\r\nimport \"@openzeppelin/contracts/access/Ownable.sol\";\r\n\r\ncontract FlightContractFactory {\r\n  mapping(address => address[]) public contracts;\r\n  address link;\r\n\r\n  constructor(address _link) public {\r\n    link = _link;\r\n  }\r\n\r\n  function getContractCount() \r\n    public \r\n    view \r\n    returns(uint contractCount) \r\n  {\r\n    address user = msg.sender;\r\n    return contracts[user].length;\r\n  }\r\n\r\n  function getContractAt(uint _contractId) \r\n    public \r\n    view \r\n    returns(address) \r\n  {\r\n    address user = msg.sender;\r\n    return contracts[user][_contractId];\r\n  }\r\n\r\n  function clearContracts()\r\n  public\r\n  {\r\n    address user = msg.sender;\r\n    delete contracts[user]; \r\n  }\r\n\r\n  function newFlightContract(\r\n    uint256 price,\r\n    uint256 flightId,\r\n    uint256 condition\r\n  )\r\n    public\r\n    returns(address)\r\n  {\r\n    address from = msg.sender;\r\n    FlightContract f = new FlightContract(link, price, flightId, condition);\r\n    address addr = address(f);\r\n    contracts[from].push(addr);\r\n    return addr;\r\n  }\r\n}\r\n\r\ncontract FlightContract is ChainlinkClient {\r\n  uint256 public price;\r\n  uint256 public flightId;\r\n  uint256 public condition;\r\n  bool public refund;\r\n  event FlightContractRefunded(\r\n    bytes32 indexed requestId,\r\n    bool indexed refund\r\n  );\r\n\r\n  constructor(address _link, uint256 _price, uint256 _flightId, uint256 _condition) public {\r\n    if (_link == address(0)) {\r\n      setPublicChainlinkToken();\r\n    } else {\r\n      setChainlinkToken(_link);\r\n    }\r\n\r\n    price = _price;\r\n    flightId = _flightId;\r\n    condition = _condition;\r\n  }\r\n\r\n  function createCheckFlightConditionRequest(address _oracle, string memory _jobId) public returns (bytes32 requestId)\r\n  {\r\n    Chainlink.Request memory req = buildChainlinkRequest(stringToBytes32(_jobId), address(this), this.fulfill.selector);\r\n    req.add(\"url\", 'https://api.covidtracking.com/v1/states/NY/current.json');\r\n    req.add(\"path\", \"positive\");\r\n    requestId = sendChainlinkRequestTo(_oracle, req, LINK);\r\n  }\r\n\r\n  function fulfill(bytes32 _requestId, uint256 positiveCases)\r\n    public\r\n    recordChainlinkFulfillment(_requestId)\r\n  {\r\n    refund = positiveCases > condition;\r\n    emit FlightContractRefunded(_requestId, refund);\r\n  }\r\n\r\n  function getChainlinkToken() public view returns (address) {\r\n    return chainlinkTokenAddress();\r\n  }\r\n\r\n  // this was straight copy-paste\r\n  function stringToBytes32(string memory source) private pure returns (bytes32 result) {\r\n    bytes memory tempEmptyStringTest = bytes(source);\r\n    if (tempEmptyStringTest.length == 0) {\r\n      return 0x0;\r\n    }\r\n\r\n    assembly {\r\n      result := mload(add(source, 32))\r\n    }\r\n  }\r\n}\r\n",
  "sourcePath": "C:/Users/dvarg/Developer/dvargas92495/wings/contracts/FlightContractFactory.sol",
  "compiler": {
    "name": "solc",
    "version": "0.6.6+commit.6c089d02.Emscripten.clang"
  },
  "schemaVersion": "3.2.4",
  "updatedAt": "2020-09-22T18:43:14.461Z",
  "devdoc": {
    "methods": {}
  },
  "userdoc": {
    "methods": {}
  }
}