{
  "contractName": "FlightContractFactory",
  "abi": [
    {
      "inputs": [
        {
          "internalType": "uint256",
          "name": "",
          "type": "uint256"
        }
      ],
      "name": "contracts",
      "outputs": [
        {
          "internalType": "address",
          "name": "",
          "type": "address"
        }
      ],
      "stateMutability": "view",
      "type": "function",
      "constant": true
    },
    {
      "inputs": [],
      "name": "getContractCount",
      "outputs": [
        {
          "internalType": "uint256",
          "name": "contractCount",
          "type": "uint256"
        }
      ],
      "stateMutability": "view",
      "type": "function",
      "constant": true
    },
    {
      "inputs": [
        {
          "internalType": "address",
          "name": "chainLinkToken",
          "type": "address"
        },
        {
          "internalType": "uint256",
          "name": "price",
          "type": "uint256"
        },
        {
          "internalType": "uint256",
          "name": "flightId",
          "type": "uint256"
        },
        {
          "internalType": "uint256",
          "name": "condition",
          "type": "uint256"
        }
      ],
      "name": "newFlightContract",
      "outputs": [
        {
          "internalType": "address",
          "name": "newContract",
          "type": "address"
        }
      ],
      "stateMutability": "nonpayable",
      "type": "function"
    }
  ],
  "bytecode": "0x6080604052600060015534801561001557600080fd5b50611323806100256000396000f3fe608060405234801561001057600080fd5b50600436106100415760003560e01c8063474da79a146100465780639399869d146100b4578063f5766e82146100d2575b600080fd5b6100726004803603602081101561005c57600080fd5b8101908080359060200190929190505050610174565b604051808273ffffffffffffffffffffffffffffffffffffffff1673ffffffffffffffffffffffffffffffffffffffff16815260200191505060405180910390f35b6100bc6101b0565b6040518082815260200191505060405180910390f35b610132600480360360808110156100e857600080fd5b81019080803573ffffffffffffffffffffffffffffffffffffffff1690602001909291908035906020019092919080359060200190929190803590602001909291905050506101bc565b604051808273ffffffffffffffffffffffffffffffffffffffff1673ffffffffffffffffffffffffffffffffffffffff16815260200191505060405180910390f35b6000818154811061018157fe5b906000526020600020016000915054906101000a900473ffffffffffffffffffffffffffffffffffffffff1681565b60008080549050905090565b600080858585856040516101cf906102ae565b808573ffffffffffffffffffffffffffffffffffffffff1673ffffffffffffffffffffffffffffffffffffffff168152602001848152602001838152602001828152602001945050505050604051809103906000f080158015610236573d6000803e3d6000fd5b50905060008190506000819080600181540180825580915050600190039060005260206000200160009091909190916101000a81548173ffffffffffffffffffffffffffffffffffffffff021916908373ffffffffffffffffffffffffffffffffffffffff1602179055508092505050949350505050565b611032806102bc8339019056fe6080604052600160045534801561001557600080fd5b506040516110323803806110328339818101604052608081101561003857600080fd5b8101908080519060200190929190805190602001909291908051906020019092919080519060200190929190505050600073ffffffffffffffffffffffffffffffffffffffff168473ffffffffffffffffffffffffffffffffffffffff1614156100af576100aa61018360201b60201c565b6100bf565b6100be8461022860201b60201c565b5b732f90a6d021db21e1b2a077c5a37b3c7e75d15b7e600660006101000a81548173ffffffffffffffffffffffffffffffffffffffff021916908373ffffffffffffffffffffffffffffffffffffffff1602179055507f623636303264313465343733346334396135653163653139643435613436333260078190555067016345785d8a00006008819055508260098190555081600a8190555080600b819055506000600c60006101000a81548160ff0219169083151502179055505050505061026c565b61022673c89bd4e1632d3a43cb03aaad5262cbe4038bc57173ffffffffffffffffffffffffffffffffffffffff166338cc48316040518163ffffffff1660e01b815260040160206040518083038186803b1580156101e057600080fd5b505afa1580156101f4573d6000803e3d6000fd5b505050506040513d602081101561020a57600080fd5b810190808051906020019092919050505061022860201b60201c565b565b80600260006101000a81548173ffffffffffffffffffffffffffffffffffffffff021916908373ffffffffffffffffffffffffffffffffffffffff16021790555050565b610db78061027b6000396000f3fe608060405234801561001057600080fd5b50600436106100365760003560e01c80634357855e1461003b578063fe00ae7a14610073575b600080fd5b6100716004803603604081101561005157600080fd5b8101908080359060200190929190803590602001909291905050506100b5565b005b61009f6004803603602081101561008957600080fd5b81019080803590602001909291905050506101f3565b6040518082815260200191505060405180910390f35b816005600082815260200190815260200160002060009054906101000a900473ffffffffffffffffffffffffffffffffffffffff1673ffffffffffffffffffffffffffffffffffffffff163373ffffffffffffffffffffffffffffffffffffffff161461016d576040517f08c379a0000000000000000000000000000000000000000000000000000000008152600401808060200182810382526028815260200180610d5a6028913960400191505060405180910390fd5b6005600082815260200190815260200160002060006101000a81549073ffffffffffffffffffffffffffffffffffffffff0219169055807f7cc135e0cebb02c3480ae5d74d377283180a2601f8f644edf7987b009316c63a60405160405180910390a2600b548211600c60006101000a81548160ff021916908315150217905550505050565b60006101fd610c8b565b61021160075430634357855e60e01b610329565b90506102756040518060400160405280600381526020017f75726c0000000000000000000000000000000000000000000000000000000000815250604051806060016040528060248152602001610d36602491398361035a9092919063ffffffff16565b6102f46040518060400160405280600481526020017f70617468000000000000000000000000000000000000000000000000000000008152506040518060400160405280600c81526020017f5b305d2e706f73697469766500000000000000000000000000000000000000008152508361035a9092919063ffffffff16565b610321600660009054906101000a900473ffffffffffffffffffffffffffffffffffffffff16828561038d565b915050919050565b610331610c8b565b610339610c8b565b61035085858584610645909392919063ffffffff16565b9150509392505050565b6103718284608001516106f590919063ffffffff16565b6103888184608001516106f590919063ffffffff16565b505050565b600030600454604051602001808373ffffffffffffffffffffffffffffffffffffffff1673ffffffffffffffffffffffffffffffffffffffff1660601b815260140182815260200192505050604051602081830303815290604052805190602001209050600454836060018181525050836005600083815260200190815260200160002060006101000a81548173ffffffffffffffffffffffffffffffffffffffff021916908373ffffffffffffffffffffffffffffffffffffffff160217905550807fb5e6e01e79f91267dc17b4e6314d5d4d03593d2ceee0fbb452b750bd70ea5af960405160405180910390a2600260009054906101000a900473ffffffffffffffffffffffffffffffffffffffff1673ffffffffffffffffffffffffffffffffffffffff16634000aea085846104c58761071a565b6040518463ffffffff1660e01b8152600401808473ffffffffffffffffffffffffffffffffffffffff1673ffffffffffffffffffffffffffffffffffffffff16815260200183815260200180602001828103825283818151815260200191508051906020019080838360005b8381101561054c578082015181840152602081019050610531565b50505050905090810190601f1680156105795780820380516001836020036101000a031916815260200191505b50945050505050602060405180830381600087803b15801561059a57600080fd5b505af11580156105ae573d6000803e3d6000fd5b505050506040513d60208110156105c457600080fd5b810190808051906020019092919050505061062a576040517f08c379a0000000000000000000000000000000000000000000000000000000008152600401808060200182810382526023815260200180610d136023913960400191505060405180910390fd5b60016004600082825401925050819055508090509392505050565b61064d610c8b565b61065d85608001516101006108e6565b508385600001818152505082856020019073ffffffffffffffffffffffffffffffffffffffff16908173ffffffffffffffffffffffffffffffffffffffff16815250508185604001907bffffffffffffffffffffffffffffffffffffffffffffffffffffffff191690817bffffffffffffffffffffffffffffffffffffffffffffffffffffffff191681525050849050949350505050565b610702826003835161093a565b6107158183610a7f90919063ffffffff16565b505050565b6060634042994660e01b60008084600001518560200151866040015187606001516001896080015160000151604051602401808973ffffffffffffffffffffffffffffffffffffffff1673ffffffffffffffffffffffffffffffffffffffff1681526020018881526020018781526020018673ffffffffffffffffffffffffffffffffffffffff1673ffffffffffffffffffffffffffffffffffffffff168152602001857bffffffffffffffffffffffffffffffffffffffffffffffffffffffff19167bffffffffffffffffffffffffffffffffffffffffffffffffffffffff1916815260200184815260200183815260200180602001828103825283818151815260200191508051906020019080838360005b8381101561084957808201518184015260208101905061082e565b50505050905090810190601f1680156108765780820380516001836020036101000a031916815260200191505b509950505050505050505050604051602081830303815290604052907bffffffffffffffffffffffffffffffffffffffffffffffffffffffff19166020820180517bffffffffffffffffffffffffffffffffffffffffffffffffffffffff83818316178352505050509050919050565b6108ee610cf8565b6000602083816108fa57fe5b0614610913576020828161090a57fe5b06602003820191505b81836020018181525050604051808452600081528281016020016040525082905092915050565b60178111610967576109618160058460ff16901b60ff161784610aa190919063ffffffff16565b50610a7a565b60ff81116109a95761098c601860058460ff16901b1784610aa190919063ffffffff16565b506109a381600185610ac19092919063ffffffff16565b50610a79565b61ffff81116109ec576109cf601960058460ff16901b1784610aa190919063ffffffff16565b506109e681600285610ac19092919063ffffffff16565b50610a78565b63ffffffff8111610a3157610a14601a60058460ff16901b1784610aa190919063ffffffff16565b50610a2b81600485610ac19092919063ffffffff16565b50610a77565b67ffffffffffffffff8111610a7657610a5d601b60058460ff16901b1784610aa190919063ffffffff16565b50610a7481600885610ac19092919063ffffffff16565b505b5b5b5b5b505050565b610a87610cf8565b610a9983846000015151848551610ae3565b905092915050565b610aa9610cf8565b610ab98384600001515184610b9c565b905092915050565b610ac9610cf8565b610ada848560000151518585610bea565b90509392505050565b610aeb610cf8565b8251821115610af957600080fd5b84602001518285011115610b2457610b23856002610b1d8860200151888701610c4b565b02610c67565b5b600080865180518760208301019350808887011115610b435787860182525b60208701925050505b60208410610b6f5780518252602082019150602081019050602084039350610b4c565b60006001856020036101000a03905080198251168184511681811785525050879350505050949350505050565b610ba4610cf8565b83602001518310610bc157610bc0846002866020015102610c67565b5b8351805160208583010184815381861415610bdd576001820183525b5050508390509392505050565b610bf2610cf8565b84602001518483011115610c1057610c0f85600286850102610c67565b5b60006001836101000a0390508551838682010185831982511617815281518588011115610c3d5784870182525b505085915050949350505050565b600081831115610c5d57829050610c61565b8190505b92915050565b606082600001519050610c7a83836108e6565b50610c858382610a7f565b50505050565b6040518060a0016040528060008019168152602001600073ffffffffffffffffffffffffffffffffffffffff16815260200160007bffffffffffffffffffffffffffffffffffffffffffffffffffffffff1916815260200160008152602001610cf2610cf8565b81525090565b60405180604001604052806060815260200160008152509056fe756e61626c6520746f207472616e73666572416e6443616c6c20746f206f7261636c6568747470733a2f2f636f766964747261636b696e672e636f6d2f6170692f737461746573536f75726365206d75737420626520746865206f7261636c65206f66207468652072657175657374a26469706673582212205d6379a4f375ff93dee2447e19165269d04f266a1b9c81ab3a2bccdb65174c7f64736f6c63430006060033a26469706673582212206cb26ab07afb98a08c32a906f974b0fb59133d21a748514062c05ce66e2d68dc64736f6c63430006060033",
  "immutableReferences": {},
  "source": "pragma solidity >=0.5.0;\n\nimport \"@chainlink/contracts/src/v0.6/ChainlinkClient.sol\";\nimport \"@openzeppelin/contracts/access/Ownable.sol\";\n\ncontract FlightContractFactory {\n  address[] public contracts;\n  uint contractId = 0;\n\n  function getContractCount() \n    public \n    view \n    returns(uint contractCount) \n  {\n    return contracts.length;\n  }\n\n  function newFlightContract(\n    address chainLinkToken,\n    uint256 price,\n    uint256 flightId,\n    uint256 condition\n  )\n    public\n    returns(address newContract)\n  {\n    FlightContract f = new FlightContract(chainLinkToken, price, flightId, condition);\n    address addr = address(f);\n    contracts.push(addr);\n    return addr;\n  }\n}\n\ncontract FlightContract is ChainlinkClient {\n  address private oracle;\n  bytes32 private jobId;\n  uint256 private fee;\n\n  uint256 price;\n  uint256 flightId;\n  uint256 condition;\n  bool refund;\n\n  constructor(address _link, uint256 _price, uint256 _flightId, uint256 _condition) public {\n    if (_link == address(0)) {\n      setPublicChainlinkToken();\n    } else {\n      setChainlinkToken(_link);\n    }\n    oracle = 0x2f90A6D021db21e1B2A077c5a37B3C7E75D15b7e;\n    jobId = \"b6602d14e4734c49a5e1ce19d45a4632\"; // Get, Parse, Multi, UInt256, Transact\n    fee = 0.1 * 10 ** 18; // 0.1 LINK\n\n    price = _price;\n    flightId = _flightId;\n    condition = _condition;\n    refund = false;\n  }\n\n  /**\n   * @param _payment The payment\n   */\n  function createCheckFlightConditionRequest(\n    uint256 _payment\n  ) public returns (bytes32 requestId)\n  {\n    Chainlink.Request memory req = buildChainlinkRequest(jobId, address(this), this.fulfill.selector);\n    req.add(\"url\", 'https://covidtracking.com/api/states');\n    req.add(\"path\", \"[0].positive\");\n    requestId = sendChainlinkRequestTo(oracle, req, _payment);\n  }\n\n  function fulfill(bytes32 _requestId, uint256 positiveCases)\n    public\n    recordChainlinkFulfillment(_requestId)\n  {\n    refund = positiveCases > condition;\n  }\n}\n",
  "sourcePath": "C:/Users/dvarg/Developer/dvargas92495/chainlink-hackathon/contracts/FlightContractFactory.sol",
  "compiler": {
    "name": "solc",
    "version": "0.6.6+commit.6c089d02.Emscripten.clang"
  },
  "schemaVersion": "3.2.4",
  "updatedAt": "2020-09-12T21:42:33.911Z",
  "networkType": "ethereum",
  "devdoc": {
    "methods": {}
  },
  "userdoc": {
    "methods": {}
  }
}