{
  "contractName": "GithubIssueContract",
  "abi": [
    {
      "inputs": [
        {
          "internalType": "address",
          "name": "_link",
          "type": "address"
        },
        {
          "internalType": "string",
          "name": "_issueUrl",
          "type": "string"
        }
      ],
      "stateMutability": "nonpayable",
      "type": "constructor"
    },
    {
      "anonymous": false,
      "inputs": [
        {
          "indexed": true,
          "internalType": "bytes32",
          "name": "id",
          "type": "bytes32"
        }
      ],
      "name": "ChainlinkCancelled",
      "type": "event"
    },
    {
      "anonymous": false,
      "inputs": [
        {
          "indexed": true,
          "internalType": "bytes32",
          "name": "id",
          "type": "bytes32"
        }
      ],
      "name": "ChainlinkFulfilled",
      "type": "event"
    },
    {
      "anonymous": false,
      "inputs": [
        {
          "indexed": true,
          "internalType": "bytes32",
          "name": "id",
          "type": "bytes32"
        }
      ],
      "name": "ChainlinkRequested",
      "type": "event"
    },
    {
      "inputs": [],
      "name": "issueUrl",
      "outputs": [
        {
          "internalType": "string",
          "name": "",
          "type": "string"
        }
      ],
      "stateMutability": "view",
      "type": "function",
      "constant": true
    },
    {
      "inputs": [],
      "name": "state",
      "outputs": [
        {
          "internalType": "bool",
          "name": "",
          "type": "bool"
        }
      ],
      "stateMutability": "view",
      "type": "function",
      "constant": true
    },
    {
      "inputs": [
        {
          "internalType": "uint256",
          "name": "_payment",
          "type": "uint256"
        }
      ],
      "name": "createGithubIssueRequest",
      "outputs": [
        {
          "internalType": "bytes32",
          "name": "requestId",
          "type": "bytes32"
        }
      ],
      "stateMutability": "nonpayable",
      "type": "function"
    },
    {
      "inputs": [
        {
          "internalType": "bytes32",
          "name": "_requestId",
          "type": "bytes32"
        },
        {
          "internalType": "bool",
          "name": "_state",
          "type": "bool"
        }
      ],
      "name": "fulfill",
      "outputs": [],
      "stateMutability": "nonpayable",
      "type": "function"
    }
  ],
  "bytecode": "0x608060405260016004553480156200001657600080fd5b506040516200133d3803806200133d833981810160405260408110156200003c57600080fd5b8101908080519060200190929190805160405193929190846401000000008211156200006757600080fd5b838201915060208201858111156200007e57600080fd5b82518660018202830111640100000000821117156200009c57600080fd5b8083526020830192505050908051906020019080838360005b83811015620000d2578082015181840152602081019050620000b5565b50505050905090810190601f168015620001005780820380516001836020036101000a031916815260200191505b50604052505050600073ffffffffffffffffffffffffffffffffffffffff168273ffffffffffffffffffffffffffffffffffffffff16141562000153576200014d6200021160201b60201c565b62000165565b6200016482620002bb60201b60201c565b5b732f90a6d021db21e1b2a077c5a37b3c7e75d15b7e600860006101000a81548173ffffffffffffffffffffffffffffffffffffffff021916908373ffffffffffffffffffffffffffffffffffffffff1602179055507f366439313465646333366531346436633838306339633535626461356263303460098190555067016345785d8a0000600a81905550806007908051906020019062000208929190620002ff565b505050620003ae565b620002b973c89bd4e1632d3a43cb03aaad5262cbe4038bc57173ffffffffffffffffffffffffffffffffffffffff166338cc48316040518163ffffffff1660e01b815260040160206040518083038186803b1580156200027057600080fd5b505afa15801562000285573d6000803e3d6000fd5b505050506040513d60208110156200029c57600080fd5b8101908080519060200190929190505050620002bb60201b60201c565b565b80600260006101000a81548173ffffffffffffffffffffffffffffffffffffffff021916908373ffffffffffffffffffffffffffffffffffffffff16021790555050565b828054600181600116156101000203166002900490600052602060002090601f016020900481019282601f106200034257805160ff191683800117855562000373565b8280016001018555821562000373579182015b828111156200037257825182559160200191906001019062000355565b5b50905062000382919062000386565b5090565b620003ab91905b80821115620003a75760008160009055506001016200038d565b5090565b90565b610f7f80620003be6000396000f3fe608060405234801561001057600080fd5b506004361061004c5760003560e01c80639eb68f4a14610051578063b1f13aff146100d4578063c19d93fb14610116578063fd68990a14610138575b600080fd5b610059610172565b6040518080602001828103825283818151815260200191508051906020019080838360005b8381101561009957808201518184015260208101905061007e565b50505050905090810190601f1680156100c65780820380516001836020036101000a031916815260200191505b509250505060405180910390f35b610100600480360360208110156100ea57600080fd5b8101908080359060200190929190505050610210565b6040518082815260200191505060405180910390f35b61011e6103c8565b604051808215151515815260200191505060405180910390f35b6101706004803603604081101561014e57600080fd5b81019080803590602001909291908035151590602001909291905050506103db565b005b60078054600181600116156101000203166002900480601f0160208091040260200160405190810160405280929190818152602001828054600181600116156101000203166002900480156102085780601f106101dd57610100808354040283529160200191610208565b820191906000526020600020905b8154815290600101906020018083116101eb57829003601f168201915b505050505081565b600061021a610e77565b61022e6009543063fd68990a60e01b610515565b90506103146040518060400160405280600381526020017f75726c000000000000000000000000000000000000000000000000000000000081525060078054600181600116156101000203166002900480601f0160208091040260200160405190810160405280929190818152602001828054600181600116156101000203166002900480156102ff5780601f106102d4576101008083540402835291602001916102ff565b820191906000526020600020905b8154815290600101906020018083116102e257829003601f168201915b5050505050836105469092919063ffffffff16565b6103936040518060400160405280600481526020017f70617468000000000000000000000000000000000000000000000000000000008152506040518060400160405280600581526020017f7374617465000000000000000000000000000000000000000000000000000000815250836105469092919063ffffffff16565b6103c0600860009054906101000a900473ffffffffffffffffffffffffffffffffffffffff168285610579565b915050919050565b600660009054906101000a900460ff1681565b816005600082815260200190815260200160002060009054906101000a900473ffffffffffffffffffffffffffffffffffffffff1673ffffffffffffffffffffffffffffffffffffffff163373ffffffffffffffffffffffffffffffffffffffff1614610493576040517f08c379a0000000000000000000000000000000000000000000000000000000008152600401808060200182810382526028815260200180610f226028913960400191505060405180910390fd5b6005600082815260200190815260200160002060006101000a81549073ffffffffffffffffffffffffffffffffffffffff0219169055807f7cc135e0cebb02c3480ae5d74d377283180a2601f8f644edf7987b009316c63a60405160405180910390a281600660006101000a81548160ff021916908315150217905550505050565b61051d610e77565b610525610e77565b61053c85858584610831909392919063ffffffff16565b9150509392505050565b61055d8284608001516108e190919063ffffffff16565b6105748184608001516108e190919063ffffffff16565b505050565b600030600454604051602001808373ffffffffffffffffffffffffffffffffffffffff1673ffffffffffffffffffffffffffffffffffffffff1660601b815260140182815260200192505050604051602081830303815290604052805190602001209050600454836060018181525050836005600083815260200190815260200160002060006101000a81548173ffffffffffffffffffffffffffffffffffffffff021916908373ffffffffffffffffffffffffffffffffffffffff160217905550807fb5e6e01e79f91267dc17b4e6314d5d4d03593d2ceee0fbb452b750bd70ea5af960405160405180910390a2600260009054906101000a900473ffffffffffffffffffffffffffffffffffffffff1673ffffffffffffffffffffffffffffffffffffffff16634000aea085846106b187610906565b6040518463ffffffff1660e01b8152600401808473ffffffffffffffffffffffffffffffffffffffff1673ffffffffffffffffffffffffffffffffffffffff16815260200183815260200180602001828103825283818151815260200191508051906020019080838360005b8381101561073857808201518184015260208101905061071d565b50505050905090810190601f1680156107655780820380516001836020036101000a031916815260200191505b50945050505050602060405180830381600087803b15801561078657600080fd5b505af115801561079a573d6000803e3d6000fd5b505050506040513d60208110156107b057600080fd5b8101908080519060200190929190505050610816576040517f08c379a0000000000000000000000000000000000000000000000000000000008152600401808060200182810382526023815260200180610eff6023913960400191505060405180910390fd5b60016004600082825401925050819055508090509392505050565b610839610e77565b6108498560800151610100610ad2565b508385600001818152505082856020019073ffffffffffffffffffffffffffffffffffffffff16908173ffffffffffffffffffffffffffffffffffffffff16815250508185604001907bffffffffffffffffffffffffffffffffffffffffffffffffffffffff191690817bffffffffffffffffffffffffffffffffffffffffffffffffffffffff191681525050849050949350505050565b6108ee8260038351610b26565b6109018183610c6b90919063ffffffff16565b505050565b6060634042994660e01b60008084600001518560200151866040015187606001516001896080015160000151604051602401808973ffffffffffffffffffffffffffffffffffffffff1673ffffffffffffffffffffffffffffffffffffffff1681526020018881526020018781526020018673ffffffffffffffffffffffffffffffffffffffff1673ffffffffffffffffffffffffffffffffffffffff168152602001857bffffffffffffffffffffffffffffffffffffffffffffffffffffffff19167bffffffffffffffffffffffffffffffffffffffffffffffffffffffff1916815260200184815260200183815260200180602001828103825283818151815260200191508051906020019080838360005b83811015610a35578082015181840152602081019050610a1a565b50505050905090810190601f168015610a625780820380516001836020036101000a031916815260200191505b509950505050505050505050604051602081830303815290604052907bffffffffffffffffffffffffffffffffffffffffffffffffffffffff19166020820180517bffffffffffffffffffffffffffffffffffffffffffffffffffffffff83818316178352505050509050919050565b610ada610ee4565b600060208381610ae657fe5b0614610aff5760208281610af657fe5b06602003820191505b81836020018181525050604051808452600081528281016020016040525082905092915050565b60178111610b5357610b4d8160058460ff16901b60ff161784610c8d90919063ffffffff16565b50610c66565b60ff8111610b9557610b78601860058460ff16901b1784610c8d90919063ffffffff16565b50610b8f81600185610cad9092919063ffffffff16565b50610c65565b61ffff8111610bd857610bbb601960058460ff16901b1784610c8d90919063ffffffff16565b50610bd281600285610cad9092919063ffffffff16565b50610c64565b63ffffffff8111610c1d57610c00601a60058460ff16901b1784610c8d90919063ffffffff16565b50610c1781600485610cad9092919063ffffffff16565b50610c63565b67ffffffffffffffff8111610c6257610c49601b60058460ff16901b1784610c8d90919063ffffffff16565b50610c6081600885610cad9092919063ffffffff16565b505b5b5b5b5b505050565b610c73610ee4565b610c8583846000015151848551610ccf565b905092915050565b610c95610ee4565b610ca58384600001515184610d88565b905092915050565b610cb5610ee4565b610cc6848560000151518585610dd6565b90509392505050565b610cd7610ee4565b8251821115610ce557600080fd5b84602001518285011115610d1057610d0f856002610d098860200151888701610e37565b02610e53565b5b600080865180518760208301019350808887011115610d2f5787860182525b60208701925050505b60208410610d5b5780518252602082019150602081019050602084039350610d38565b60006001856020036101000a03905080198251168184511681811785525050879350505050949350505050565b610d90610ee4565b83602001518310610dad57610dac846002866020015102610e53565b5b8351805160208583010184815381861415610dc9576001820183525b5050508390509392505050565b610dde610ee4565b84602001518483011115610dfc57610dfb85600286850102610e53565b5b60006001836101000a0390508551838682010185831982511617815281518588011115610e295784870182525b505085915050949350505050565b600081831115610e4957829050610e4d565b8190505b92915050565b606082600001519050610e668383610ad2565b50610e718382610c6b565b50505050565b6040518060a0016040528060008019168152602001600073ffffffffffffffffffffffffffffffffffffffff16815260200160007bffffffffffffffffffffffffffffffffffffffffffffffffffffffff1916815260200160008152602001610ede610ee4565b81525090565b60405180604001604052806060815260200160008152509056fe756e61626c6520746f207472616e73666572416e6443616c6c20746f206f7261636c65536f75726365206d75737420626520746865206f7261636c65206f66207468652072657175657374a264697066735822122030179733452e1ed69e0a3caf1977cc674e2e6e126e0847bf4ee3deb5684270ba64736f6c63430006060033",
  "immutableReferences": {},
  "source": "pragma solidity >=0.5.0;\n\nimport \"@chainlink/contracts/src/v0.6/ChainlinkClient.sol\";\n\ncontract GithubIssueContract is ChainlinkClient {\n  bool public state;\n  string public issueUrl;\n\n  address private oracle;\n  bytes32 private jobId;\n  uint256 private fee;\n\n  constructor(address _link, string memory _issueUrl) public {\n    if (_link == address(0)) {\n      setPublicChainlinkToken();\n    } else {\n      setChainlinkToken(_link);\n    }\n    oracle = 0x2f90A6D021db21e1B2A077c5a37B3C7E75D15b7e;\n    jobId = \"6d914edc36e14d6c880c9c55bda5bc04\"; // Get, Parse, Bool\n    fee = 0.1 * 10 ** 18; // 0.1 LINK\n    issueUrl = _issueUrl;\n  }\n\n  /**\n   * @param _payment The payment\n   */\n  function createGithubIssueRequest(\n    uint256 _payment\n  ) public returns (bytes32 requestId)\n  {\n    Chainlink.Request memory req = buildChainlinkRequest(jobId, address(this), this.fulfill.selector);\n    req.add(\"url\", issueUrl);\n    req.add(\"path\", \"state\");\n    requestId = sendChainlinkRequestTo(oracle, req, _payment);\n  }\n\n  /**\n   * @notice The fulfill method from requests created by this contract\n   * @dev The recordChainlinkFulfillment protects this function from being called\n   * by anyone other than the oracle address that the request was sent to\n   * @param _requestId The ID that was generated for the request\n   * @param _state The answer provided by the oracle\n   */\n  function fulfill(bytes32 _requestId, bool _state)\n    public\n    recordChainlinkFulfillment(_requestId)\n  {\n    state = _state;\n  }\n}\n",
  "sourcePath": "C:/Users/dvarg/Developer/dvargas92495/chainlink-hackathon/contracts/GithubIssueContract.sol",
  "compiler": {
    "name": "solc",
    "version": "0.6.6+commit.6c089d02.Emscripten.clang"
  },
  "schemaVersion": "3.2.4",
  "updatedAt": "2020-09-08T22:02:28.009Z",
  "networkType": "ethereum",
  "devdoc": {
    "methods": {
      "createGithubIssueRequest(uint256)": {
        "params": {
          "_payment": "The payment"
        }
      },
      "fulfill(bytes32,bool)": {
        "details": "The recordChainlinkFulfillment protects this function from being called by anyone other than the oracle address that the request was sent to",
        "params": {
          "_requestId": "The ID that was generated for the request",
          "_state": "The answer provided by the oracle"
        }
      }
    }
  },
  "userdoc": {
    "methods": {
      "fulfill(bytes32,bool)": {
        "notice": "The fulfill method from requests created by this contract"
      }
    }
  }
}